:020000040800F2
:1000000090040020010100080F110008C50F00082E
:100010000D11000849010008CD140008000000007F
:1000200000000000000000000000000013110008A4
:100030004B01000800000000111100081511000814
:100040001B0100081B0100081B0100081B01000820
:100050001B0100081B0100081B0100081B01000810
:100060001B0100081B0100081B0100081B01000800
:100070001B0100081B0100081B0100081B010008F0
:100080001B0100081B0100081B0100081B010008E0
:100090001B0100081B0100081B0100081B010008D0
:1000A0001B0100081B0100081B0100081B010008C0
:1000B0001B010008D11100081B0100081B010008EA
:1000C0001B0100081B0100081B0100081B010008A0
:1000D0001B0100081B0100081B0100081B01000890
:1000E0004D0100081B0100081B010008DFF80CD0BF
:1000F00000F018F8004800470D1500089004002093
:100100000648804706480047FEE7FEE7FEE7FEE7B1
:10011000FEE7FEE7FEE7FEE7FEE7FEE789110008DF
:10012000ED000008064C074D06E0E06840F00103D2
:1001300094E8070098471034AC42F6D3FFF7DAFF93
:1001400084150008A4150008FEE770474FF400501E
:1001500000F002B870470000044910B50A68024276
:1001600002D00860FFF7F6FF10BD00001404014044
:100170002DE9F84FDFF8B891002409F1040A0AF1DB
:10018000040B23460F270BF1040EC9E00125A540FF
:100190002A40AA427DD1674ED1F804C0ACEB0608D4
:1001A000B44532D014DCBCF1030F3AD009DCBCF109
:1001B000000F2AD0BCF1010F1CD0BCF1020F31D1CD
:1001C0001DE0BCF1110F17D0BCF1120F2AD119E0BC
:1001D000B8F5881F19D006DCB8F5803F15D0B8F502
:1001E000801F1FD111E0B8F5001F0ED0B8F5041F15
:1001F00018D10AE0CB6815E0CB681B1D12E0CB6874
:1002000008330FE0CB680C330CE08B682BB1012B6B
:100210004FF0080303D0456104E0042302E00561C8
:1002200000E00023FF2A01D8064601E000F10406A1
:100230004FEA840501D9A5F12005D6F8008007FA18
:1002400005FC28EA0C0803FA05F548EA0508C6F893
:1002500000804D68ED0062D5374DAE6946F001066D
:10026000AE61AD6924F0030605F001050095334D3C
:1002700006EB050CDCF80850A607360F07FA06F85F
:1002800025EA0805DFF8B880404503D14FF00008A3
:1002900017E044E0DFF8AC80404502D14FF00108A0
:1002A0000FE0DFF8A480404502D14FF0020808E0DB
:1002B000DFF89880404502D14FF0030801E04FF08D
:1002C000040808FA06F848EA0508CCF808804D68E2
:1002D000D9F80060ED034D4601D5164300E0964382
:1002E0002E604D68DAF80060AD03554601D516431F
:1002F00000E096432E604D68DBF80060ED025D463D
:1003000001D5164300E096432E604D68DEF800608C
:10031000AD02754601D5164300E096432E60641C7D
:100320000D682A46E5407FF431AFBDE8F88F000044
:1003300000040140000011100010024000000140C4
:1003400000080140000C0140001001400014014071
:100350000AB1016170470904FBE7000001488068A9
:1003600070470000000000200248816802781144B4
:100370008160704700000020074810B5016841F017
:1003800010010160032000F09FF8002000F006F843
:1003900000F024F8002010BD0020024070B50D4D83
:1003A00004464FF47A712878B1FBF0F00A490968E5
:1003B000B1FBF0F000F029FB48B9102C07D2002265
:1003C0002146501E00F060F800206C6070BD0120D6
:1003D00070BD0000000000200C000020214808B57E
:1003E000816941F001018161816901F001010091A0
:1003F000C16941F08051C161C06900F08050009036
:10040000032000F061F8002211466FF00B0000F0AD
:100410003BF8002211466FF00A0000F035F8002288
:1004200011466FF0090000F02FF800221146501F0E
:1004300000F02AF800221146101F00F025F80022D3
:100440001146901E00F020F800221146501E00F0C8
:100450001BF80548416821F0E06141F000714160FE
:1004600008BD00000010024000000140002809DB28
:1004700000F01F02012191404009800000F1E020BE
:10048000C0F8001170470000F0B40E4B1B680C461A
:10049000C3F30223C3F10705042D00D90425191D58
:1004A000072901D2002300E0DB1E012606FA05F130
:1004B000491E214099409E40761E16403143F0BCB3
:1004C00001F005B80CED00E0064900F007020868ED
:1004D0004FF6FF03184040EA0220034A1043086029
:1004E000704700000CED00E00000FA052DE9F04730
:1004F0000F46050061D0434E306800F00700B84257
:1005000009D2306820F0070038433060306800F0CE
:100510000700B84251D128683B4C810712D54007EB
:1005200003D5606840F4E06060602878000703D578
:10053000606840F4605060606068A96820F0F00076
:10054000084360602878C00728D06868012810D068
:100550002168022810D0890700292EDA616821F06D
:10056000030101436160FFF7F9FE804641F28839DB
:100570000DE021688903EFE78901EDE7FFF7EEFE63
:10058000A0EB0801494502D90320BDE8F087606867
:10059000696800F00C00B0EB810FEFD1306800F01B
:1005A0000700B8420BD9306820F0070038433060AC
:1005B000306800F00700B84201D00120E5E7287854
:1005C000400705D56068E96820F4E0600843606092
:1005D0002878000706D56068296920F4605040EA51
:1005E000C100606000F03EF86168084AC1F3031181
:1005F000515CC8400649086006480068FFF7CEFE17
:100600000020C2E700200240001002406C150008E4
:100610000C00002004000020014800687047000022
:100620000C0000200448054900684968044AC1F3E9
:100630000221515CC84070470C00002000100240AD
:100640007C1500080448054900684968044AC1F35C
:10065000C221515CC84070470C00002000100240CD
:100660007C15000812A185B00FC98DE80F0014A0F9
:10067000144A006804905168134801F00C03042BDD
:1006800010D0082B0ED1C1F38343C9031DF803001A
:100690000AD5516804AAC1F34041515C0A4A50434B
:1006A000B0FBF1F005B0704708494843FAE7000095
:1006B00002030405060708090A0B0C0D0E0F1010A3
:1006C000010200000010024000127A0000093D0003
:1006D0002DE9F84F040070D02078C04DC00749D0F4
:1006E0006868C0F38100012807D06868C0F3810002
:1006F000022809D16868C00306D52868800339D567
:1007000060680028E7D035E06068B0F5803F0BD026
:1007100010B1B0F5A02F11D0286820F480302860E7
:10072000286820F4802002E0286840F480302860A7
:10073000606890B1FFF712FE06460AE0286840F4B0
:1007400080202860F0E700BFFFF708FE801B6428C8
:1007500073D828688003F7D50CE0FFF7FFFD064645
:1007600005E000BFFFF7FAFD801B6428F0D8286879
:100770008003F7D420789A4E80074FF001094FF09C
:10078000000839D5686810F00C0F07D06868C0F30E
:100790008100022809D16868C00306D42868800750
:1007A00014D52069012808D110E02069B0B1C6F83D
:1007B0000090FFF7D3FD074605E00AE1FFF7CEFD05
:1007C000C01B0228C4D828688007F7D5286861694B
:1007D00020F0F80040EAC10028600DE0C6F8008073
:1007E000FFF7BCFD074604E0FFF7B8FDC01B022879
:1007F00023D828688007F7D4207800072CD57948BB
:10080000A169D9B1C0F80090FFF7A8FD074604E040
:10081000FFF7A4FDC01B02280FD8686A8007F7D530
:1008200071484FF4FA510068B0FBF1F0009000BF3E
:100830000098411E0091FAD20EE080E0C0F80080DE
:10084000FFF78CFD074604E0FFF788FDC01B022878
:1008500075D8686A8007F7D42078400760D5E869C2
:100860000027C00008D4E86940F08050E861E869DA
:10087000012700F0805000905C480168C90513D43E
:100880000168834641F480710160FFF767FD82468D
:1008900006E000BFFFF762FDA0EB0A0064284ED817
:1008A000DBF80000C005F5D5E06801280AD008B1E2
:1008B000052813D0286A20F001002862286A20F059
:1008C000040002E0286A40F001002862E06841F27A
:1008D000883B98B1FFF742FD82460BE0286A40F062
:1008E00004002862EEE700BFFFF738FDA0EB0A0125
:1008F00059455AD8286A8007F6D50CE0FFF72EFD37
:10090000824605E0FFF72AFDA0EB0A0159454CD8C5
:10091000286A8007F6D41FB1E86920F08050E861AA
:10092000E06988B36968C1F38101022944D00228D3
:10093000C6F8608004D0FFF711FD044638E034E0CB
:10094000FFF70CFD074604E0FFF708FDC01B022877
:100950002BD828688001F7D4206AB0F5803F05D1F4
:100960006868A16820F4003008436860D4E9080191
:100970000843696821F4741108436860C6F8609000
:10098000FFF7ECFC044606E025E000BFFFF7E6FCBD
:10099000001B022809D828688001F7D51BE000BF9A
:1009A000FFF7DCFC001B022802D90320BDE8F88F0A
:1009B00028688001F4D40EE00128F7D06868226A24
:1009C00000F48031914204D1616A00F470108842D1
:1009D00001D00120EAE70020E8E700000010024013
:1009E00000004242800442420C000020007000409F
:1009F0004FF0E0210428086903D020F004000861CA
:100A0000704740F00400FAE7704710B5401EB0F19F
:100A1000807F01D3012010BD4FF0E02460610F21E1
:100A2000601700F054FD0020A06107202061002025
:100A300010BD10B5FFF7E8FF10BD7047704770B5E7
:100A400090F83C20012A19D0012400F83C4F0222E2
:100A5000427050F83C3C5A689D6822F070060A6863
:100A60004968324325F0800529435A6050F83C2CF0
:100A70009160447000210170084670BD022070BD75
:100A800010B5040003D094F83D0010B107E0012038
:100A900010BD002084F83C00204600F00DF8022034
:100AA00084F83D00211D206800F098FB012084F8A7
:100AB0003D00002010BD000008B5006806498842CE
:100AC00008D10648C16941F00201C161C06900F066
:100AD0000200009008BD0000000400400010024029
:100AE0000168CA6842F00102CA600068816801F0CA
:100AF0000701062903D0016841F0010101600020CF
:100B0000704770B5044690F83C00012817D00125C5
:100B100084F83C50022084F83D002068826822F06E
:100B2000770222F47F4282600868502830D00DDCC2
:100B300020284DD005DC98B310283BD148E0022096
:100B400070BD302844D0402834D139E0602828D006
:100B5000702806D0B0F5805F2CD0B0F5005F29D1A9
:100B60000AE0CB68D1E90121206800F07AFB206817
:100B7000816841F0770109E0CB68D1E90121206863
:100B800000F06FFB2068816841F48041816011E0D2
:100B9000CA684968206800F019FC5021206807E005
:100BA00016E0CA684968206800F021FC60212068CE
:100BB00000F061FB84F83D50002084F83C0070BDDB
:100BC000CA684968206800F001FC40212068EFE70E
:100BD000226801461046EBE7704770B5044600688E
:100BE00001694FF00005C943890715D4C168C9439D
:100BF000890711D4E91E01610120207720688069EE
:100C00008007204602D0FFF7E7FF04E000F0ACF8D1
:100C1000204600F02FF9257720680169C94349076C
:100C200017D4C168C943490713D46FF004010161A7
:100C3000022020772068806910F4407F204602D08F
:100C4000FFF7CAFF04E000F08FF8204600F012F929
:100C5000257720680169C943090716D4C168C943CB
:100C6000090712D46FF00801016104202077206881
:100C7000C0698007204602D0FFF7AEFF04E000F015
:100C800073F8204600F0F6F8257720680169C9431B
:100C9000C90617D4C168C943C90613D46FF010013F
:100CA0000161082020772068C06910F4407F204649
:100CB00002D0FFF791FF04E000F056F8204600F064
:100CC000D9F8257720680169C943C90708D1C168E7
:100CD000C943C90704D1891E0161204600F010F9FB
:100CE00020680169C943090609D4C168C9430906D6
:100CF00005D46FF0800101612046FFF79EFE206859
:100D00000169C943490609D4C168C943490605D4E4
:100D10006FF040010161204600F002F9206801698E
:100D2000C94389060BD4C168C943890607D46FF04B
:100D3000200101612046BDE87040FFF77FBE70BD15
:100D40001FB500680649884208D140200090022063
:100D50000190039069460348FFF70AFA1FBD00009F
:100D60000004004000080140704770B5044690F848
:100D70003C000D4601280DD0012684F83C6002207D
:100D800084F83D0042B1042A18D0082A2AD00C2A3F
:100D90004DD139E0022070BD206800F075FA20685E
:100DA000816941F0080181612068816921F00401B5
:100DB0008161206881692A69114311E0206800F08F
:100DC0008BFA2068816941F4006181612068816942
:100DD00021F480618161206881692A6941EA0221E8
:100DE000816124E0206800F0A3FA2068C16941F025
:100DF0000801C1612068C16921F00401C161206856
:100E0000C1692A69114311E0206800F0BDFA206829
:100E1000C16941F40061C1612068C16921F4806148
:100E2000C1612068C1692A6941EA0221C16184F86F
:100E30003D60002084F83C0070BD10B5040003D074
:100E400094F83D0010B107E0012010BD002084F8A7
:100E50003C00204600F00CF8022084F83D00211DE3
:100E6000206800F0BBF9012084F83D00002010BD8F
:100E70007047000000680549884205D100224FF6FE
:100E8000FF710348FFF764BA704700000004004098
:100E90000010014010B50268044631B1042908D0A1
:100EA000082922D00C2908D123E0D06840F00200A4
:100EB00002E0D06840F00400D0600122206800F019
:100EC000C3F90E492068884203D1416C41F40041C6
:100ED00041642068816801F00701062903D0016898
:100EE00041F001010160002010BDD06840F0080011
:100EF000E2E7D06840F01000DEE70000002C01407F
:100F000000680549884205D101224FF6FF71034868
:100F1000FFF71EBA704700000004004000100140B7
:100F2000704770B5040004D094F83900002510B162
:100F300006E0012070BD84F83850204600F022F809
:100F4000242084F839002068C16821F40051C16070
:100F5000204600F05FFA2068016921F490410161A8
:100F60002068416921F02A0141612068C16841F48B
:100F70000051C160E563202084F8390084F83A000C
:100F8000002070BD00B500680B4985B0884211D1C2
:100F90000A48C16941F40031C161C069694600F481
:100FA000003004900C20009002200190039004482F
:100FB000FFF7DEF805B000BD00440040001002401D
:100FC00000080140FEE700002DE9F0412B4886B003
:100FD000816941F010018161816901F01001049182
:100FE000816941F020018161816901F02001049152
:100FF000816941F004018161816901F0040104917A
:10100000816941F00801816180691D4F00F008008D
:1010100004900022FF213846FFF79AF9DFF8648038
:10102000002220214046FFF793F9781400901648DB
:101030000024CDE9010469463846FFF799F8FF20FE
:1010400001250226CDE90005CDE90246694638466C
:10105000FFF78EF82020CDE90005CDE9024669466C
:101060004046FFF785F8002211462820FFF70CFACA
:101070002820FFF7FBF906B0BDE8F0810010024020
:1010800000100140000801400000111010B51E487A
:101090008EB01C49016042F20F710024C0E90114B6
:1010A00041F6FF01C0E903148461FFF7E9FC00B1D8
:1010B000FEE74FF48050079007A91348FFF721FD82
:1010C00000B1FEE71048FFF7B8FE00B1FEE70B9451
:1010D0000BA90D480C94FFF7B2FC00B1FEE76020AD
:1010E000009040F2E730CDE901040022694606484D
:1010F0000494FFF73AFE00B1FEE70348FFF720FE35
:101100000EB010BD0004004010000020FEE7704744
:101110007047704710B5FFF727F9BDE81040FFF79B
:1011200088BC30B58FB002250120049000951020B6
:10113000059000244FF46010CDE9084007956846FB
:10114000FFF7C6FA00B1FEE70F20CDE90A054FF41C
:101150008060CDE90C4002210AA80E94FFF7C6F981
:1011600000B1FEE7FFF758FA4FF47A71B0FBF1F0E7
:10117000FFF74BFC0420FFF73BFC00221146501EFA
:10118000FFF782F90FB030BD0D48016841F0010151
:10119000016041680B4A1140416001680A4A1140F0
:1011A0000160016821F480210160416821F4FE01A1
:1011B00041604FF41F0181600449C003086070471B
:1011C000001002400000FFF8FFFFF6FE08ED00E00F
:1011D0000148FFF702BD000010000020F0B50268D2
:1011E000164B174C174D4FF08047984205D0B84228
:1011F00003D0A04201D0A84203D122F070064A6871
:101200003243984205D0B84203D0A04201D0A84250
:1012100003D122F44074CA6822434C6922F0800250
:10122000224302608A68C2620A688262984201D1DF
:101230000969016301214161F0BD0000002C0140FA
:10124000000400400008004010B501F01F03012118
:10125000046A99408C430462016A9A401143016216
:1012600010BD10B5846842EA032224F47F440A4387
:101270002243826010BD826822F070020A4342F06D
:10128000070181607047000030B5026A22F0010258
:101290000262026A4368846924F073050C682C4377
:1012A00022F002058A682A430A4DA8420BD122F097
:1012B0000805CA6823F440732A434D6922F00402EA
:1012C0001D438B692B43436084614968416302621B
:1012D00030BD0000002C014030B5026A22F010023F
:1012E0000262026A436884690D6824F4E64444EAB1
:1012F00005248D6822F0200242EA05120B4DA84217
:101300000ED1CD6822F0800242EA05124D6923F425
:10131000406343EA85038D6922F0400243EA850376
:101320004360846149688163026230BD002C0140E2
:1013300030B5026A22F480720262036A4268C469AC
:1013400023F4007324F073050C682C438D6843EA82
:1013500005230C4DA8420ED1CD6823F4006343EA67
:1013600005234D6922F4405242EA05128D6923F4A7
:10137000806342EA05124260C4614968C163036246
:1013800030BD0000002C014030B5026A22F48052CA
:101390000262046A4268C3690D6823F4E64343EAC3
:1013A00005238D6824F4005444EA0534064DA84210
:1013B00004D14D6922F4804242EA85124260C36141
:1013C00049680164046230BD002C014010B5036A15
:1013D000046A24F001040462846924F0F00444EAFD
:1013E000021423F00A020A438461026210BD10B5A0
:1013F000036A23F0100303628369046A23F47043D1
:1014000043EA023224F0A00343EA0111826101623F
:1014100010BD00002DE9F041044600680169E26852
:1014200021F44051114301612169A06808436169B9
:1014300008432168CA6841F20C639A430243CA60B8
:1014400020684169A26921F44071114341611E493C
:10145000206864253226884202D1FFF7F3F801E0C4
:10146000FFF7E0F800EBC00101EB001160686FF0DE
:1014700018078000B1FBF0F2B2FBF5F2B1FBF0F31C
:101480007A4303EB8202B1FBF0F306EB0212B2FBEC
:10149000F5F2B3FBF5F302F0F00202EB0312B1FB3D
:1014A000F0F3B1FBF0F0B0FBF5F0784303EB800014
:1014B00006EB0010B0FBF5F0216800F00F001044BF
:1014C0008860BDE8F081000000380140FEE70907B0
:1014D000090E002804DB00F1E02080F800147047BA
:1014E00000F00F0000F1E02080F8141D704702E0CA
:1014F00008C8121F08C1002AFAD17047704700209F
:1015000001E001C1121F002AFBD17047FEF734FF32
:10151000FFF707FEFFF758FD134812490C22016040
:101520004FF4E131416000218160C160C0E90412E3
:101530008161C161FFF7F5FC00B1FEE7FFF7A6FD91
:10154000002211461D20FEF79FFF1D20FEF78EFF93
:1015500005484038FFF7C4FA034800214038FFF738
:1015600099FCFEE70044004050000020000000000D
:101570000000000001020304060708090000000043
:1015800001020304A4150008000000201000000060
:10159000EE140008B41500081000002080040000BC
:1015A000FE14000801000000100000000000000010
:0415B0000024F4001F
:04000005080000ED02
:00000001FF
