:020000040800F2
:100000005004002001010008F30B0008010B000858
:10001000F10B0008490100086D0D00080000000008
:10002000000000000000000000000000F70B0008C6
:100030004B01000800000000F50B0008F90B000858
:100040001B0100081B0100081B0100081B01000820
:100050001B0100081B0100081B0100081B01000810
:100060001B0100081B0100081B0100081B01000800
:100070001B0100081B0100081B0100081B010008F0
:100080001B0100081B0100081B0100081B010008E0
:100090001B0100081B0100081B0100081B010008D0
:1000A0001B0100081B0100081B0100081B010008C0
:1000B0001B0100081B0100081B0100081B010008B0
:1000C0001B0100081B0100081B0100081B010008A0
:1000D0001B0100081B0100081B0100081B01000890
:1000E0004D0100081B0100081B010008DFF80CD0BF
:1000F00000F018F800480047AD0D0008500400203B
:100100000648804706480047FEE7FEE7FEE7FEE7B1
:10011000FEE7FEE7FEE7FEE7FEE7FEE76D0C000800
:10012000ED000008064C074D06E0E06840F00103D2
:1001300094E8070098471034AC42F6D3FFF7DAFF93
:100140002C0E00084C0E0008FEE770474FF40050DC
:1001500000F014B870B5044600F012F90546601CB2
:1001600002D004480078044400F00AF9401BA04281
:10017000FAD370BD0000002070470000044910B59C
:100180000A68024202D00860FFF7F6FF10BD0000C7
:10019000140401402DE9F84FDFF8B891002409F16B
:1001A000040A0AF1040B23460F270BF1040EC9E0E1
:1001B0000125A5402A40AA427DD1674ED1F804C04E
:1001C000ACEB0608B44532D014DCBCF1030F3AD0D6
:1001D00009DCBCF1000F2AD0BCF1010F1CD0BCF12E
:1001E000020F31D11DE0BCF1110F17D0BCF1120F7D
:1001F0002AD119E0B8F5881F19D006DCB8F5803F80
:1002000015D0B8F5801F1FD111E0B8F5001F0ED032
:10021000B8F5041F18D10AE0CB6815E0CB681B1DA8
:1002200012E0CB6808330FE0CB680C330CE08B682E
:100230002BB1012B4FF0080303D0456104E00423E8
:1002400002E0056100E00023FF2A01D8064601E034
:1002500000F104064FEA840501D9A5F12005D6F87E
:10026000008007FA05FC28EA0C0803FA05F548EABD
:100270000508C6F800804D68ED0062D5374DAE69BF
:1002800046F00106AE61AD6924F0030605F00105F4
:100290000095334D06EB050CDCF80850A607360F29
:1002A00007FA06F825EA0805DFF8B880404503D1CB
:1002B0004FF0000817E044E0DFF8AC80404502D181
:1002C0004FF001080FE0DFF8A480404502D14FF065
:1002D000020808E0DFF89880404502D14FF003089B
:1002E00001E04FF0040808FA06F848EA0508CCF8DF
:1002F00008804D68D9F80060ED034D4601D51643DE
:1003000000E096432E604D68DAF80060AD03554674
:1003100001D5164300E096432E604D68DBF800607F
:10032000ED025D4601D5164300E096432E604D6810
:10033000DEF80060AD02754601D5164300E0964335
:100340002E60641C0D682A46E5407FF431AFBDE89D
:10035000F88F00000004014000001110001002405E
:100360000000014000080140000C01400010014065
:10037000001401400AB1016170470904FBE7000065
:100380000148806870470000000000200248816832
:10039000027811448160704700000020074810B5C2
:1003A000016841F010010160032000F09FF8002077
:1003B00000F006F800F024F8002010BD00200240F4
:1003C00070B50D4D04464FF47A712878B1FBF0F00A
:1003D0000A490968B1FBF0F000F029FB48B9102C7C
:1003E00007D200222146501E00F060F800206C6009
:1003F00070BD012070BD0000000000200C00002036
:10040000214808B5816941F001018161816901F0EC
:1004100001010091C16941F08051C161C06900F0E2
:1004200080500090032000F061F8002211466FF028
:100430000B0000F03BF8002211466FF00A0000F0BC
:1004400035F8002211466FF0090000F02FF8002265
:100450001146501F00F02AF800221146101F00F02C
:1004600025F800221146901E00F020F800221146C7
:10047000501E00F01BF80548416821F0E06141F092
:100480000071416008BD0000001002400000014002
:10049000002809DB00F01F02012191404009800083
:1004A00000F1E020C0F8001170470000F0B40E4BDE
:1004B0001B680C46C3F30223C3F10705042D00D9C2
:1004C0000425191D072901D2002300E0DB1E0126A7
:1004D00006FA05F1491E214099409E40761E1640BD
:1004E0003143F0BC00F043BC0CED00E0064900F0E5
:1004F000070208684FF6FF03184040EA0220034A4B
:1005000010430860704700000CED00E00000FA05A1
:100510002DE9F0470F46050061D0434E306800F0EA
:100520000700B84209D2306820F007003843306035
:10053000306800F00700B84251D128683B4C810771
:1005400012D5400703D5606840F4E0606060287809
:10055000000703D5606840F4605060606068A96877
:1005600020F0F000084360602878C00728D0686851
:10057000012810D02168022810D0890700292EDA1E
:10058000616821F0030101436160FFF7F9FE8046D5
:1005900041F288390DE021688903EFE78901EDE731
:1005A000FFF7EEFEA0EB0801494502D90320BDE8A4
:1005B000F0876068696800F00C00B0EB810FEFD144
:1005C000306800F00700B8420BD9306820F007000F
:1005D00038433060306800F00700B84201D0012095
:1005E000E5E72878400705D56068E96820F4E06011
:1005F000084360602878000706D56068296920F400
:10060000605040EAC100606000F03EF86168084A4E
:10061000C1F30311515CC8400649086006480068F0
:10062000FFF7CEFE0020C2E700200240001002408B
:10063000140E00080C00002004000020014800688F
:10064000704700000C000020044805490068496814
:10065000044AC1F30221515CC84070470C000020DD
:1006600000100240240E000804480549006849684B
:10067000044AC1F3C221515CC84070470C000020FD
:1006800000100240240E000812A185B00FC98DE8A9
:100690000F0014A0144A006804905168134801F038
:1006A0000C03042B10D0082B0ED1C1F38343C903D4
:1006B0001DF803000AD5516804AAC1F34041515CFA
:1006C0000A4A5043B0FBF1F005B07047084948436F
:1006D000FAE7000002030405060708090A0B0C0DDF
:1006E0000E0F1010010200000010024000127A00EC
:1006F00000093D002DE9F84F040070D02078C04D6E
:10070000C00749D06868C0F38100012807D0686835
:10071000C0F38100022809D16868C00306D52868A3
:10072000800339D560680028E7D035E06068B0F50F
:10073000803F0BD010B1B0F5A02F11D0286820F465
:1007400080302860286820F4802002E0286840F487
:1007500080302860606890B1FFF712FE06460AE01C
:10076000286840F480202860F0E700BFFFF708FE0B
:10077000801B642873D828688003F7D50CE0FFF746
:10078000FFFD064605E000BFFFF7FAFD801B642869
:10079000F0D828688003F7D420789A4E80074FF06D
:1007A00001094FF0000839D5686810F00C0F07D028
:1007B0006868C0F38100022809D16868C00306D4C4
:1007C0002868800714D52069012808D110E0206925
:1007D000B0B1C6F80090FFF7D3FD074605E00AE187
:1007E000FFF7CEFDC01B0228C4D828688007F7D5C4
:1007F0002868616920F0F80040EAC10028600DE037
:10080000C6F80080FFF7BCFD074604E0FFF7B8FD1F
:10081000C01B022823D828688007F7D42078000757
:100820002CD57948A169D9B1C0F80090FFF7A8FD8F
:10083000074604E0FFF7A4FDC01B02280FD8686A32
:100840008007F7D571484FF4FA510068B0FBF1F01A
:10085000009000BF0098411E0091FAD20EE080E0A7
:10086000C0F80080FFF78CFD074604E0FFF788FD25
:10087000C01B022875D8686A8007F7D42078400723
:1008800060D5E8690027C00008D4E86940F08050CE
:10089000E861E869012700F0805000905C48016839
:1008A000C90513D40168834641F480710160FFF7E4
:1008B00067FD824606E000BFFFF762FDA0EB0A007D
:1008C00064284ED8DBF80000C005F5D5E0680128A3
:1008D0000AD008B1052813D0286A20F00100286248
:1008E000286A20F0040002E0286A40F00100286233
:1008F000E06841F2883B98B1FFF742FD82460BE089
:10090000286A40F004002862EEE700BFFFF738FDD8
:10091000A0EB0A0159455AD8286A8007F6D50CE0A1
:10092000FFF72EFD824605E0FFF72AFDA0EB0A0146
:1009300059454CD8286A8007F6D41FB1E86920F0E1
:100940008050E861E06988B36968C1F381010229D8
:1009500044D00228C6F8608004D0FFF711FD044699
:1009600038E034E0FFF70CFD074604E0FFF708FD30
:10097000C01B02282BD828688001F7D4206AB0F564
:10098000803F05D16868A16820F4003008436860A2
:10099000D4E908010843696821F4741108436860C8
:1009A000C6F86090FFF7ECFC044606E025E000BFC7
:1009B000FFF7E6FC001B022809D828688001F7D55C
:1009C0001BE000BFFFF7DCFC001B022802D903205C
:1009D000BDE8F88F28688001F4D40EE00128F7D034
:1009E0006868226A00F48031914204D1616A00F49F
:1009F0007010884201D00120EAE70020E8E70000FB
:100A00000010024000004242800442420C000020DC
:100A1000007000404FF0E0210428086903D020F066
:100A200004000861704740F00400FAE7704710B511
:100A3000401EB0F1807F01D3012010BD4FF0E024B3
:100A400060610F21601700F092F90020A06107207B
:100A50002061002010BD10B5FFF7E8FF10BD70B594
:100A6000040004D094F83900002510B106E00120FC
:100A700070BD84F83850204600F022F8242084F815
:100A800039002068C16821F40051C160204600F09F
:100A900011F92068016921F49041016120684169E0
:100AA00021F02A0141612068C16841F40051C16010
:100AB000E563202084F8390084F83A00002070BDF6
:100AC00000B500680B4985B0884211D10A48C16958
:100AD00041F40031C161C069694600F400300490FE
:100AE0000C2000900220019003900448FFF752FB75
:100AF00005B000BD00440040001002400008014065
:100B0000FEE700002DE9F041344886B0816941F0EC
:100B100010018161816901F010010491816941F046
:100B200020018161816901F020010491816941F016
:100B300004018161816901F004010491816941F03E
:100B4000080181618069264F00F0080004900022AE
:100B5000FF213846FFF70EFCDFF8888000222021B5
:100B60004046FFF707FC781400901F480024CDE9A9
:100B7000010469463846FFF70DFBFF2001250226D8
:100B8000CDE90005CDE9024669463846FFF702FB8C
:100B90002020CDE90005CDE9024669464046FFF731
:100BA000F9FA4FF48660CDE9000469460F480294D3
:100BB000FFF7F0FA2802CDE90004694640460294A6
:100BC000FFF7E8FA002211462820FFF76FFC2820E3
:100BD000FFF75EFC06B0BDE8F081000000100240A7
:100BE000001001400008014000001110000C0140FD
:100BF000FEE770477047704710B5FFF7C7FBBDE8C9
:100C00001040FFF728BF30B58FB0022501200490B7
:100C100000951020059000244FF46010CDE90840A5
:100C200007956846FFF766FD00B1FEE70F20CDE9A6
:100C30000A054FF48060CDE90C4002210AA80E9409
:100C4000FFF766FC00B1FEE7FFF7F8FC4FF47A719E
:100C5000B0FBF1F0FFF7EBFE0420FFF7DBFE002214
:100C60001146501EFFF722FC0FB030BD0D48016841
:100C700041F00101016041680B4A11404160016887
:100C80000A4A11400160016821F480210160416835
:100C900021F4FE0141604FF41F0181600449C0034B
:100CA00008607047001002400000FFF8FFFFF6FEEA
:100CB00008ED00E02DE9F041044600680169E268B2
:100CC00021F44051114301612169A0680843616921
:100CD00008432168CA6841F20C639A430243CA6020
:100CE00020684169A26921F44071114341611E49A4
:100CF000206864253226884202D1FFF7B5FC01E066
:100D0000FFF7A2FC00EBC00101EB001160686FF07F
:100D100018078000B1FBF0F2B2FBF5F2B1FBF0F383
:100D20007A4303EB8202B1FBF0F306EB0212B2FB53
:100D3000F5F2B3FBF5F302F0F00202EB0312B1FBA4
:100D4000F0F3B1FBF0F0B0FBF5F0784303EB80007B
:100D500006EB0010B0FBF5F0216800F00F00104426
:100D60008860BDE8F081000000380140FEE7090717
:100D7000090E002804DB00F1E02080F80014704721
:100D800000F00F0000F1E02080F8141D704702E031
:100D900008C8121F08C1002AFAD170477047002006
:100DA00001E001C1121F002AFBD17047FFF7F6FADC
:100DB000FFF729FFFFF7A6FE144813490C22016034
:100DC0004FF4E131416000218160C160C0E904124B
:100DD0008161C161FFF743FE00B1FEE70C4C4FF6A5
:100DE000FF764FF4FA75012231462046FFF7C2FA2A
:100DF0002846FFF7AFF9002231462046FFF7BAFA3E
:100E00002846FFF7A7F9EEE7004400401000002055
:100E10000010014000000000000000000102030477
:100E20000607080900000000010203044C0E000838
:100E300000000020100000008E0D00085C0E00086D
:100E400010000020400400009E0D0008010000007A
:0C0E500010000000000000000024F4006E
:04000005080000ED02
:00000001FF
